{
  "contractName": "Book",
  "abi": [
    {
      "payable": false,
      "stateMutability": "nonpayable",
      "type": "fallback"
    },
    {
      "anonymous": false,
      "inputs": [
        {
          "indexed": false,
          "name": "id",
          "type": "uint256"
        },
        {
          "indexed": false,
          "name": "nameWriter",
          "type": "string"
        },
        {
          "indexed": false,
          "name": "style",
          "type": "string"
        },
        {
          "indexed": false,
          "name": "publisherPublishAge",
          "type": "string"
        },
        {
          "indexed": false,
          "name": "ISBN",
          "type": "string"
        },
        {
          "indexed": false,
          "name": "intro",
          "type": "string"
        },
        {
          "indexed": false,
          "name": "cover",
          "type": "string"
        },
        {
          "indexed": false,
          "name": "pages",
          "type": "uint256"
        },
        {
          "indexed": false,
          "name": "status",
          "type": "string"
        },
        {
          "indexed": false,
          "name": "publishDate",
          "type": "uint256"
        }
      ],
      "name": "publishBookSuccess",
      "type": "event",
      "signature": "0x16087a9e767de6623e529756b4320e70a69d03793c9223aa357d00d4838db308"
    },
    {
      "anonymous": false,
      "inputs": [
        {
          "indexed": false,
          "name": "id",
          "type": "uint256"
        },
        {
          "indexed": false,
          "name": "addr",
          "type": "address"
        },
        {
          "indexed": false,
          "name": "score",
          "type": "uint256"
        }
      ],
      "name": "evaluateSuccess",
      "type": "event",
      "signature": "0x0188d9c8488eedcb649a5a94479208fdd077082f814ffe3df1b1b5c7c1216311"
    },
    {
      "anonymous": false,
      "inputs": [
        {
          "indexed": false,
          "name": "id",
          "type": "uint256"
        },
        {
          "indexed": false,
          "name": "addr",
          "type": "address"
        }
      ],
      "name": "borrowSuccess",
      "type": "event",
      "signature": "0x1184577b64fcae7df18378b111b57aeb694fb4b805b0931a28d733e37d06805d"
    },
    {
      "anonymous": false,
      "inputs": [
        {
          "indexed": false,
          "name": "id",
          "type": "uint256"
        },
        {
          "indexed": false,
          "name": "addr",
          "type": "address"
        }
      ],
      "name": "returnBookSuccess",
      "type": "event",
      "signature": "0x30de101b2cf7aac7e760886e5d4063d4496af6839165b08096993de98558d1ba"
    },
    {
      "constant": true,
      "inputs": [],
      "name": "getBorrowedBooks",
      "outputs": [
        {
          "name": "",
          "type": "uint256[]"
        }
      ],
      "payable": false,
      "stateMutability": "view",
      "type": "function",
      "signature": "0x8ccca18a"
    },
    {
      "constant": true,
      "inputs": [],
      "name": "getCommentedBook",
      "outputs": [
        {
          "name": "",
          "type": "uint256[]"
        }
      ],
      "payable": false,
      "stateMutability": "view",
      "type": "function",
      "signature": "0x341dca15"
    },
    {
      "constant": true,
      "inputs": [],
      "name": "getPublishedBooks",
      "outputs": [
        {
          "name": "",
          "type": "uint256[]"
        }
      ],
      "payable": false,
      "stateMutability": "view",
      "type": "function",
      "signature": "0xcf21e5fc"
    },
    {
      "constant": true,
      "inputs": [],
      "name": "getReturnedBooks",
      "outputs": [
        {
          "name": "",
          "type": "uint256[]"
        }
      ],
      "payable": false,
      "stateMutability": "view",
      "type": "function",
      "signature": "0x17a4cb99"
    },
    {
      "constant": true,
      "inputs": [],
      "name": "getBooksLength",
      "outputs": [
        {
          "name": "",
          "type": "uint256"
        }
      ],
      "payable": false,
      "stateMutability": "view",
      "type": "function",
      "signature": "0xb2adb3db"
    },
    {
      "constant": true,
      "inputs": [
        {
          "name": "id",
          "type": "uint256"
        }
      ],
      "name": "getCommentLength",
      "outputs": [
        {
          "name": "",
          "type": "uint256"
        }
      ],
      "payable": false,
      "stateMutability": "view",
      "type": "function",
      "signature": "0x1f5a5cd5"
    },
    {
      "constant": true,
      "inputs": [
        {
          "name": "id",
          "type": "uint256"
        }
      ],
      "name": "getBorrowNums",
      "outputs": [
        {
          "name": "",
          "type": "uint256"
        }
      ],
      "payable": false,
      "stateMutability": "view",
      "type": "function",
      "signature": "0x6ef424f4"
    },
    {
      "constant": true,
      "inputs": [
        {
          "name": "id",
          "type": "uint256"
        }
      ],
      "name": "getBookInfo",
      "outputs": [
        {
          "name": "",
          "type": "address"
        },
        {
          "name": "",
          "type": "string"
        },
        {
          "name": "",
          "type": "string"
        },
        {
          "name": "",
          "type": "string"
        },
        {
          "name": "",
          "type": "string"
        },
        {
          "name": "",
          "type": "string"
        },
        {
          "name": "",
          "type": "string"
        },
        {
          "name": "",
          "type": "string"
        },
        {
          "name": "",
          "type": "uint256"
        },
        {
          "name": "",
          "type": "uint256"
        },
        {
          "name": "",
          "type": "uint256"
        },
        {
          "name": "",
          "type": "uint256"
        }
      ],
      "payable": false,
      "stateMutability": "view",
      "type": "function",
      "signature": "0x57a26847"
    },
    {
      "constant": true,
      "inputs": [
        {
          "name": "bookId",
          "type": "uint256"
        },
        {
          "name": "commentId",
          "type": "uint256"
        }
      ],
      "name": "getCommentInfo",
      "outputs": [
        {
          "name": "",
          "type": "address"
        },
        {
          "name": "",
          "type": "uint256"
        },
        {
          "name": "",
          "type": "uint256"
        },
        {
          "name": "",
          "type": "string"
        }
      ],
      "payable": false,
      "stateMutability": "view",
      "type": "function",
      "signature": "0x9fae3010"
    },
    {
      "constant": true,
      "inputs": [
        {
          "name": "id",
          "type": "uint256"
        }
      ],
      "name": "isEvaluated",
      "outputs": [
        {
          "name": "",
          "type": "bool"
        }
      ],
      "payable": false,
      "stateMutability": "view",
      "type": "function",
      "signature": "0x550ca61d"
    },
    {
      "constant": true,
      "inputs": [
        {
          "name": "id",
          "type": "uint256"
        }
      ],
      "name": "isBorrowed",
      "outputs": [
        {
          "name": "",
          "type": "bool"
        }
      ],
      "payable": false,
      "stateMutability": "view",
      "type": "function",
      "signature": "0x7d7830ae"
    },
    {
      "constant": true,
      "inputs": [
        {
          "name": "id",
          "type": "uint256"
        }
      ],
      "name": "isMyBook",
      "outputs": [
        {
          "name": "",
          "type": "bool"
        }
      ],
      "payable": false,
      "stateMutability": "view",
      "type": "function",
      "signature": "0x4754d79b"
    },
    {
      "constant": false,
      "inputs": [
        {
          "name": "id",
          "type": "uint256"
        }
      ],
      "name": "isBookLeft",
      "outputs": [
        {
          "name": "",
          "type": "bool"
        }
      ],
      "payable": true,
      "stateMutability": "payable",
      "type": "function",
      "signature": "0xd3a82ebf"
    },
    {
      "constant": false,
      "inputs": [
        {
          "name": "nameWriter",
          "type": "string"
        },
        {
          "name": "style",
          "type": "string"
        },
        {
          "name": "publisherPublishAge",
          "type": "string"
        },
        {
          "name": "ISBN",
          "type": "string"
        },
        {
          "name": "intro",
          "type": "string"
        },
        {
          "name": "cover",
          "type": "string"
        },
        {
          "name": "status",
          "type": "string"
        },
        {
          "name": "pages",
          "type": "uint256"
        }
      ],
      "name": "publishBookInfo",
      "outputs": [],
      "payable": false,
      "stateMutability": "nonpayable",
      "type": "function",
      "signature": "0xb80af8ff"
    },
    {
      "constant": false,
      "inputs": [
        {
          "name": "id",
          "type": "uint256"
        },
        {
          "name": "score",
          "type": "uint256"
        },
        {
          "name": "content",
          "type": "string"
        }
      ],
      "name": "evaluate",
      "outputs": [],
      "payable": false,
      "stateMutability": "nonpayable",
      "type": "function",
      "signature": "0x7157eb66"
    },
    {
      "constant": false,
      "inputs": [
        {
          "name": "id",
          "type": "uint256"
        }
      ],
      "name": "returnBook",
      "outputs": [],
      "payable": false,
      "stateMutability": "nonpayable",
      "type": "function",
      "signature": "0xca5140c9"
    },
    {
      "constant": false,
      "inputs": [
        {
          "name": "id",
          "type": "uint256"
        }
      ],
      "name": "borrowedBook",
      "outputs": [],
      "payable": false,
      "stateMutability": "nonpayable",
      "type": "function",
      "signature": "0x24ca9617"
    }
  ],
  "bytecode": "0x60806040526001805534801561001457600080fd5b50612385806100246000396000f3fe6080604052600436106100f1576000357c0100000000000000000000000000000000000000000000000000000000900463ffffffff16806317a4cb99146101035780631f5a5cd51461012e57806324ca96171461016b578063341dca15146101945780634754d79b146101bf578063550ca61d146101fc57806357a26847146102395780636ef424f4146102815780637157eb66146102be5780637d7830ae146102e75780638ccca18a146103245780639fae30101461034f578063b2adb3db1461038f578063b80af8ff146103ba578063ca5140c9146103e3578063cf21e5fc1461040c578063d3a82ebf14610437575b3480156100fd57600080fd5b50600080fd5b34801561010f57600080fd5b50610118610467565b6040516101259190612057565b60405180910390f35b34801561013a57600080fd5b5061015560048036036101509190810190611d51565b6104ff565b6040516101629190612094565b60405180910390f35b34801561017757600080fd5b50610192600480360361018d9190810190611d51565b610528565b005b3480156101a057600080fd5b506101a9610705565b6040516101b69190612057565b60405180910390f35b3480156101cb57600080fd5b506101e660048036036101e19190810190611d51565b61079d565b6040516101f39190612079565b60405180910390f35b34801561020857600080fd5b50610223600480360361021e9190810190611d51565b61082c565b6040516102309190612079565b60405180910390f35b34801561024557600080fd5b50610260600480360361025b9190810190611d51565b6108f0565b6040516102789c9b9a99989796959493929190611f20565b60405180910390f35b34801561028d57600080fd5b506102a860048036036102a39190810190611d51565b610df7565b6040516102b59190612094565b60405180910390f35b3480156102ca57600080fd5b506102e560048036036102e09190810190611db6565b610e40565b005b3480156102f357600080fd5b5061030e60048036036103099190810190611d51565b61102d565b60405161031b9190612079565b60405180910390f35b34801561033057600080fd5b506103396110cd565b6040516103469190612057565b60405180910390f35b34801561035b57600080fd5b5061037660048036036103719190810190611d7a565b611165565b604051610386949392919061200b565b60405180910390f35b34801561039b57600080fd5b506103a46112c2565b6040516103b19190612094565b60405180910390f35b3480156103c657600080fd5b506103e160048036036103dc9190810190611bf7565b6112ce565b005b3480156103ef57600080fd5b5061040a60048036036104059190810190611d51565b6115a2565b005b34801561041857600080fd5b5061042161173c565b60405161042e9190612057565b60405180910390f35b610451600480360361044c9190810190611d51565b6117d4565b60405161045e9190612079565b60405180910390f35b6060600260003373ffffffffffffffffffffffffffffffffffffffff1673ffffffffffffffffffffffffffffffffffffffff1681526020019081526020016000206002018054806020026020016040519081016040528092919081815260200182805480156104f557602002820191906000526020600020905b8154815260200190600101908083116104e1575b5050505050905090565b6000808281548110151561050f57fe5b90600052602060002090600e0201600b01549050919050565b6000805490508110151561053b57600080fd5b6000808281548110151561054b57fe5b90600052602060002090600e020190503373ffffffffffffffffffffffffffffffffffffffff168160000160009054906101000a900473ffffffffffffffffffffffffffffffffffffffff1673ffffffffffffffffffffffffffffffffffffffff16141580156105c157506105bf8261102d565b155b15156105cc57600080fd5b602060405190810160405280600160008154809291906001019190505581525081600d01600080815260200190815260200160002060008201518160000155905050600260003373ffffffffffffffffffffffffffffffffffffffff1673ffffffffffffffffffffffffffffffffffffffff1681526020019081526020016000206001018290806001815401808255809150509060018203906000526020600020016000909192909190915055506040805190810160405280600681526020017fe7a6bbe9a68600000000000000000000000000000000000000000000000000008152508160070190805190602001906106c79291906119f0565b507f1184577b64fcae7df18378b111b57aeb694fb4b805b0931a28d733e37d06805d82336040516106f99291906120af565b60405180910390a15050565b6060600260003373ffffffffffffffffffffffffffffffffffffffff1673ffffffffffffffffffffffffffffffffffffffff16815260200190815260200160002060030180548060200260200160405190810160405280929190818152602001828054801561079357602002820191906000526020600020905b81548152602001906001019080831161077f575b5050505050905090565b6000806000838154811015156107af57fe5b90600052602060002090600e020190503373ffffffffffffffffffffffffffffffffffffffff168160000160009054906101000a900473ffffffffffffffffffffffffffffffffffffffff1673ffffffffffffffffffffffffffffffffffffffff161415610821576001915050610827565b60009150505b919050565b60008060008381548110151561083e57fe5b90600052602060002090600e0201905060008090505b81600b01548110156108e4573373ffffffffffffffffffffffffffffffffffffffff1682600c01600083815260200190815260200160002060000160009054906101000a900473ffffffffffffffffffffffffffffffffffffffff1673ffffffffffffffffffffffffffffffffffffffff1614156108d7576001925050506108eb565b8080600101915050610854565b5060009150505b919050565b600060608060608060608060606000806000806000805490508d10151561091657600080fd5b6000808e81548110151561092657fe5b90600052602060002090600e020190508060000160009054906101000a900473ffffffffffffffffffffffffffffffffffffffff1681600101826002018360030184600401856005018660060187600701886008015489600901548a600a01548b600b01548a8054600181600116156101000203166002900480601f016020809104026020016040519081016040528092919081815260200182805460018160011615610100020316600290048015610a205780601f106109f557610100808354040283529160200191610a20565b820191906000526020600020905b815481529060010190602001808311610a0357829003601f168201915b50505050509a50898054600181600116156101000203166002900480601f016020809104026020016040519081016040528092919081815260200182805460018160011615610100020316600290048015610abc5780601f10610a9157610100808354040283529160200191610abc565b820191906000526020600020905b815481529060010190602001808311610a9f57829003601f168201915b50505050509950888054600181600116156101000203166002900480601f016020809104026020016040519081016040528092919081815260200182805460018160011615610100020316600290048015610b585780601f10610b2d57610100808354040283529160200191610b58565b820191906000526020600020905b815481529060010190602001808311610b3b57829003601f168201915b50505050509850878054600181600116156101000203166002900480601f016020809104026020016040519081016040528092919081815260200182805460018160011615610100020316600290048015610bf45780601f10610bc957610100808354040283529160200191610bf4565b820191906000526020600020905b815481529060010190602001808311610bd757829003601f168201915b50505050509750868054600181600116156101000203166002900480601f016020809104026020016040519081016040528092919081815260200182805460018160011615610100020316600290048015610c905780601f10610c6557610100808354040283529160200191610c90565b820191906000526020600020905b815481529060010190602001808311610c7357829003601f168201915b50505050509650858054600181600116156101000203166002900480601f016020809104026020016040519081016040528092919081815260200182805460018160011615610100020316600290048015610d2c5780601f10610d0157610100808354040283529160200191610d2c565b820191906000526020600020905b815481529060010190602001808311610d0f57829003601f168201915b50505050509550848054600181600116156101000203166002900480601f016020809104026020016040519081016040528092919081815260200182805460018160011615610100020316600290048015610dc85780601f10610d9d57610100808354040283529160200191610dc8565b820191906000526020600020905b815481529060010190602001808311610dab57829003601f168201915b505050505094509c509c509c509c509c509c509c509c509c509c509c509c505091939597999b5091939597999b565b600080600083815481101515610e0957fe5b90600052602060002090600e02019050600081600d0160008081526020019081526020016000209050806000015492505050919050565b60008054905083101515610e5357600080fd5b60008084815481101515610e6357fe5b90600052602060002090600e0201905082600011158015610e855750600a8311155b1515610e9057600080fd5b8281600a01600082825401925050819055506080604051908101604052803373ffffffffffffffffffffffffffffffffffffffff1681526020014281526020018481526020018381525081600c01600083600b01600081548092919060010191905055815260200190815260200160002060008201518160000160006101000a81548173ffffffffffffffffffffffffffffffffffffffff021916908373ffffffffffffffffffffffffffffffffffffffff16021790555060208201518160010155604082015181600201556060820151816003019080519060200190610f78929190611a70565b50905050600260003373ffffffffffffffffffffffffffffffffffffffff1673ffffffffffffffffffffffffffffffffffffffff1681526020019081526020016000206003018490806001815401808255809150509060018203906000526020600020016000909192909190915055507f0188d9c8488eedcb649a5a94479208fdd077082f814ffe3df1b1b5c7c1216311843383600a015460405161101f939291906120d8565b60405180910390a150505050565b600080600260003373ffffffffffffffffffffffffffffffffffffffff1673ffffffffffffffffffffffffffffffffffffffff168152602001908152602001600020905060008090505b81600101805490508110156110c15783826001018281548110151561109857fe5b906000526020600020015414156110b4576001925050506110c8565b8080600101915050611077565b5060009150505b919050565b6060600260003373ffffffffffffffffffffffffffffffffffffffff1673ffffffffffffffffffffffffffffffffffffffff16815260200190815260200160002060010180548060200260200160405190810160405280929190818152602001828054801561115b57602002820191906000526020600020905b815481526020019060010190808311611147575b5050505050905090565b600080600060606000805490508610151561117f57600080fd5b60008681548110151561118e57fe5b90600052602060002090600e0201600b0154851015156111ad57600080fd5b600080878154811015156111bd57fe5b90600052602060002090600e0201600c01600087815260200190815260200160002090508060000160009054906101000a900473ffffffffffffffffffffffffffffffffffffffff168160010154826002015483600301808054600181600116156101000203166002900480601f0160208091040260200160405190810160405280929190818152602001828054600181600116156101000203166002900480156112a95780601f1061127e576101008083540402835291602001916112a9565b820191906000526020600020905b81548152906001019060200180831161128c57829003601f168201915b5050505050905094509450945094505092959194509250565b60008080549050905090565b6000808054905090506112df611af0565b610180604051908101604052803373ffffffffffffffffffffffffffffffffffffffff1681526020018b81526020018a815260200189815260200188815260200187815260200186815260200185815260200184815260200142815260200160008152602001600081525090506000819080600181540180825580915050906001820390600052602060002090600e02016000909192909190915060008201518160000160006101000a81548173ffffffffffffffffffffffffffffffffffffffff021916908373ffffffffffffffffffffffffffffffffffffffff16021790555060208201518160010190805190602001906113dd929190611a70565b5060408201518160020190805190602001906113fa929190611a70565b506060820151816003019080519060200190611417929190611a70565b506080820151816004019080519060200190611434929190611a70565b5060a0820151816005019080519060200190611451929190611a70565b5060c082015181600601908051906020019061146e929190611a70565b5060e082015181600701908051906020019061148b929190611a70565b506101008201518160080155610120820151816009015561014082015181600a015561016082015181600b0155505050600260003373ffffffffffffffffffffffffffffffffffffffff1673ffffffffffffffffffffffffffffffffffffffff1681526020019081526020016000206000018290806001815401808255809150509060018203906000526020600020016000909192909190915055507f16087a9e767de6623e529756b4320e70a69d03793c9223aa357d00d4838db3088282602001518360400151846060015185608001518660a001518760c001518861010001518960e001518a610120015160405161158e9a9998979695949392919061210f565b60405180910390a150505050505050505050565b600080549050811015156115b557600080fd5b600080828154811015156115c557fe5b90600052602060002090600e020190503373ffffffffffffffffffffffffffffffffffffffff168160000160009054906101000a900473ffffffffffffffffffffffffffffffffffffffff1673ffffffffffffffffffffffffffffffffffffffff161415801561163a57506116398261102d565b5b151561164557600080fd5b6040805190810160405280600681526020017fe59ca8e69eb600000000000000000000000000000000000000000000000000008152508160070190805190602001906116929291906119f0565b50600260003373ffffffffffffffffffffffffffffffffffffffff1673ffffffffffffffffffffffffffffffffffffffff1681526020019081526020016000206002018290806001815401808255809150509060018203906000526020600020016000909192909190915055507f30de101b2cf7aac7e760886e5d4063d4496af6839165b08096993de98558d1ba82336040516117309291906120af565b60405180910390a15050565b6060600260003373ffffffffffffffffffffffffffffffffffffffff1673ffffffffffffffffffffffffffffffffffffffff1681526020019081526020016000206000018054806020026020016040519081016040528092919081815260200182805480156117ca57602002820191906000526020600020905b8154815260200190600101908083116117b6575b5050505050905090565b60008080549050821015156117e857600080fd5b600080838154811015156117f857fe5b90600052602060002090600e020190506118e3816007018054600181600116156101000203166002900480601f0160208091040260200160405190810160405280929190818152602001828054600181600116156101000203166002900480156118a35780601f10611878576101008083540402835291602001916118a3565b820191906000526020600020905b81548152906001019060200180831161188657829003601f168201915b50505050506040805190810160405280600681526020017fe7a6bbe9a68600000000000000000000000000000000000000000000000000008152506118fd565b156118f25760019150506118f8565b60009150505b919050565b6000816040516020018082805190602001908083835b6020831015156119385780518252602082019150602081019050602083039250611913565b6001836020036101000a03801982511681845116808217855250505050505090500191505060405160208183030381529060405280519060200120836040516020018082805190602001908083835b6020831015156119ac5780518252602082019150602081019050602083039250611987565b6001836020036101000a0380198251168184511680821785525050505050509050019150506040516020818303038152906040528051906020012014905092915050565b828054600181600116156101000203166002900490600052602060002090601f016020900481019282601f10611a3157805160ff1916838001178555611a5f565b82800160010185558215611a5f579182015b82811115611a5e578251825591602001919060010190611a43565b5b509050611a6c9190611b68565b5090565b828054600181600116156101000203166002900490600052602060002090601f016020900481019282601f10611ab157805160ff1916838001178555611adf565b82800160010185558215611adf579182015b82811115611ade578251825591602001919060010190611ac3565b5b509050611aec9190611b68565b5090565b61018060405190810160405280600073ffffffffffffffffffffffffffffffffffffffff16815260200160608152602001606081526020016060815260200160608152602001606081526020016060815260200160608152602001600081526020016000815260200160008152602001600081525090565b611b8a91905b80821115611b86576000816000905550600101611b6e565b5090565b90565b600082601f8301121515611ba057600080fd5b8135611bb3611bae82612209565b6121dc565b91508082526020830160208301858383011115611bcf57600080fd5b611bda8382846122f8565b50505092915050565b6000611bef82356122b8565b905092915050565b600080600080600080600080610100898b031215611c1457600080fd5b600089013567ffffffffffffffff811115611c2e57600080fd5b611c3a8b828c01611b8d565b985050602089013567ffffffffffffffff811115611c5757600080fd5b611c638b828c01611b8d565b975050604089013567ffffffffffffffff811115611c8057600080fd5b611c8c8b828c01611b8d565b965050606089013567ffffffffffffffff811115611ca957600080fd5b611cb58b828c01611b8d565b955050608089013567ffffffffffffffff811115611cd257600080fd5b611cde8b828c01611b8d565b94505060a089013567ffffffffffffffff811115611cfb57600080fd5b611d078b828c01611b8d565b93505060c089013567ffffffffffffffff811115611d2457600080fd5b611d308b828c01611b8d565b92505060e0611d418b828c01611be3565b9150509295985092959890939650565b600060208284031215611d6357600080fd5b6000611d7184828501611be3565b91505092915050565b60008060408385031215611d8d57600080fd5b6000611d9b85828601611be3565b9250506020611dac85828601611be3565b9150509250929050565b600080600060608486031215611dcb57600080fd5b6000611dd986828701611be3565b9350506020611dea86828701611be3565b925050604084013567ffffffffffffffff811115611e0757600080fd5b611e1386828701611b8d565b9150509250925092565b611e26816122c2565b82525050565b611e3581612270565b82525050565b6000611e4682612242565b808452602084019350611e5883612235565b60005b82811015611e8a57611e6e868351611f11565b611e7782612263565b9150602086019550600181019050611e5b565b50849250505092915050565b611e9f81612282565b82525050565b6000611eb082612258565b808452611ec4816020860160208601612307565b611ecd8161233a565b602085010191505092915050565b6000611ee68261224d565b808452611efa816020860160208601612307565b611f038161233a565b602085010191505092915050565b611f1a816122ae565b82525050565b600061018082019050611f36600083018f611e2c565b8181036020830152611f48818e611ea5565b90508181036040830152611f5c818d611ea5565b90508181036060830152611f70818c611ea5565b90508181036080830152611f84818b611ea5565b905081810360a0830152611f98818a611ea5565b905081810360c0830152611fac8189611ea5565b905081810360e0830152611fc08188611ea5565b9050611fd0610100830187611f11565b611fde610120830186611f11565b611fec610140830185611f11565b611ffa610160830184611f11565b9d9c50505050505050505050505050565b60006080820190506120206000830187611e2c565b61202d6020830186611f11565b61203a6040830185611f11565b818103606083015261204c8184611ea5565b905095945050505050565b600060208201905081810360008301526120718184611e3b565b905092915050565b600060208201905061208e6000830184611e96565b92915050565b60006020820190506120a96000830184611f11565b92915050565b60006040820190506120c46000830185611f11565b6120d16020830184611e1d565b9392505050565b60006060820190506120ed6000830186611f11565b6120fa6020830185611e1d565b6121076040830184611f11565b949350505050565b600061014082019050612125600083018d611f11565b8181036020830152612137818c611edb565b9050818103604083015261214b818b611edb565b9050818103606083015261215f818a611edb565b905081810360808301526121738189611edb565b905081810360a08301526121878188611edb565b905081810360c083015261219b8187611edb565b90506121aa60e0830186611f11565b8181036101008301526121bd8185611edb565b90506121cd610120830184611f11565b9b9a5050505050505050505050565b6000604051905081810181811067ffffffffffffffff821117156121ff57600080fd5b8060405250919050565b600067ffffffffffffffff82111561222057600080fd5b601f19601f8301169050602081019050919050565b6000602082019050919050565b600081519050919050565b600081519050919050565b600081519050919050565b6000602082019050919050565b600061227b8261228e565b9050919050565b60008115159050919050565b600073ffffffffffffffffffffffffffffffffffffffff82169050919050565b6000819050919050565b6000819050919050565b60006122cd826122d4565b9050919050565b60006122df826122e6565b9050919050565b60006122f18261228e565b9050919050565b82818337600083830152505050565b60005b8381101561232557808201518184015260208101905061230a565b83811115612334576000848401525b50505050565b6000601f19601f830116905091905056fea265627a7a72305820b764d456e70a962d0642ee352c14dd572d911921d2184a63dee6a74b6d3222ce6c6578706572696d656e74616cf50037",
  "source": "pragma solidity >=0.4.22 <0.6.0;\r\npragma experimental ABIEncoderV2;\r\n\r\ncontract Book{\r\n    struct OptBook{\r\n        uint[] publishedBooks;//\r\n        uint[] borrowedBooks;//\r\n        uint[] returnedBooks;//\r\n        uint[] commentedBooks;//\r\n    }\r\n\r\n    struct Book{\r\n        address owner;//\r\n        string nameWriter;//&\r\n        string style;//\r\n        string publisherPublishAge;//&\r\n        string ISBN;//\r\n        string intro;//\r\n        string cover;//\r\n\r\n        string status;//(01)\r\n        uint pages;//\r\n        uint publishDate;//\r\n        uint score;//\r\n        uint comment;//\r\n        mapping(uint => Comment) comments;//\r\n        mapping(uint => BorrowNums) borrowNums;\r\n    }\r\n\r\n    struct Comment {\r\n        address reader; // \r\n        uint date;      // \r\n        uint score;     // \r\n        string content; // \r\n    }\r\n\r\n    struct BorrowNums{\r\n        uint borrowNum;//\r\n    }\r\n\r\n    Book[] books;\r\n    uint tempNum = 1;\r\n    mapping(address => OptBook) BooksPool;\r\n    //\r\n    event publishBookSuccess(uint id, string nameWriter, string style, string publisherPublishAge,\r\n        string ISBN,string intro, string cover, uint pages, string status,\r\n        uint publishDate);\r\n    //\r\n    event evaluateSuccess(uint id,address addr,uint score);\r\n    //\r\n    event borrowSuccess(uint id, address addr);\r\n    //\r\n    event returnBookSuccess(uint id, address addr);\r\n\r\n    //\r\n    function getBorrowedBooks() public view returns (uint[] memory){\r\n        return BooksPool[msg.sender].borrowedBooks;\r\n    }\r\n    //\r\n    function getCommentedBook() public view returns(uint[] memory){\r\n        return BooksPool[msg.sender].commentedBooks;\r\n    }\r\n    //\r\n    function getPublishedBooks() public view returns(uint[] memory){\r\n        return BooksPool[msg.sender].publishedBooks;\r\n    }\r\n    //\r\n    function getReturnedBooks() public view returns(uint[] memory){\r\n        return BooksPool[msg.sender].returnedBooks;\r\n    }\r\n\r\n    //\r\n    function getBooksLength() public view returns(uint){\r\n        return books.length;\r\n    }\r\n\r\n    //\r\n    function getCommentLength(uint id) public view returns (uint) {\r\n        return books[id].comment;\r\n    }\r\n\r\n    //\r\n    function getBorrowNums(uint id) public view returns(uint){\r\n        Book storage book = books[id];\r\n        BorrowNums storage b = book.borrowNums[0];\r\n        return b.borrowNum;\r\n    }\r\n\r\n    //\r\n    function getBookInfo(uint id) public view returns(address, string memory, string memory, string memory,string memory,string memory,string memory,\r\n        string memory, uint, uint, uint, uint){\r\n        require(id < books.length);\r\n        //,\r\n        Book storage book = books[id];\r\n        return (book.owner,book.nameWriter,book.style,book.publisherPublishAge,book.ISBN,book.intro,book.cover,book.status,\r\n        book.pages,book.publishDate,book.score,book.comment);\r\n    }\r\n\r\n    //\r\n    function getCommentInfo(uint bookId,uint commentId) public view returns(\r\n        address, uint, uint, string memory){\r\n        require(bookId < books.length);\r\n        require(commentId < books[bookId].comment);\r\n        Comment storage c = books[bookId].comments[commentId];\r\n        return (c.reader, c.date, c.score, c.content);\r\n    }\r\n\r\n    //  \r\n    function isEvaluated(uint id) public view returns (bool) {\r\n        Book storage book = books[id];\r\n        for(uint i = 0; i < book.comment; i++)\r\n            if(book.comments[i].reader == msg.sender)\r\n                return true; // \r\n        return false; // \r\n    }\r\n\r\n    //  \r\n    function isBorrowed(uint id) public view returns (bool) {\r\n        OptBook storage optBook = BooksPool[msg.sender];\r\n        for(uint i = 0; i < optBook.borrowedBooks.length; i++)\r\n            if(optBook.borrowedBooks[i] == id)\r\n                return true; // \r\n        return false; // \r\n    }\r\n\r\n    function isMyBook(uint id) public view returns(bool){\r\n        Book storage book = books[id];\r\n        if(book.owner == msg.sender)\r\n            return true;\r\n        return false;\r\n    }\r\n\r\n    //\r\n    function isBookLeft(uint id) public payable returns(bool){\r\n        require(id < books.length);\r\n        Book storage book = books[id];\r\n        if(hashCompareInternal(book.status,\"\"))\r\n            return true;//\r\n        return false;//\r\n    }\r\n\r\n    //\r\n    function publishBookInfo(string memory nameWriter, string memory style, string memory publisherPublishAge,string memory ISBN,string memory intro,\r\n        string memory cover,string memory status ,uint pages) public {\r\n        uint id = books.length;\r\n        Book memory book = Book(msg.sender,nameWriter,style,publisherPublishAge,ISBN,intro,cover,status,pages,now,0,0);\r\n        books.push(book);\r\n        BooksPool[msg.sender].publishedBooks.push(id);\r\n        emit publishBookSuccess(id,book.nameWriter,book.style,book.publisherPublishAge,book.ISBN,book.intro,book.cover,\r\n            book.pages,book.status,book.publishDate);\r\n    }\r\n\r\n    //\r\n    function evaluate(uint id, uint score, string memory content) public{\r\n        require(id < books.length);\r\n        // \r\n        Book storage book = books[id];\r\n        //require(book.owner != msg.sender && !isEvaluated(id)); // \r\n        require(0 <= score && score <= 10); // \r\n        // \r\n        book.score += score;\r\n        book.comments[book.comment++] = Comment(msg.sender, now, score, content);\r\n        BooksPool[msg.sender].commentedBooks.push(id);\r\n        emit evaluateSuccess(id, msg.sender, book.score);\r\n    }\r\n\r\n    //\r\n    function returnBook(uint id) public{\r\n        require(id < books.length);\r\n        Book storage book = books[id];\r\n        require(book.owner != msg.sender && isBorrowed(id)); // \r\n        book.status = \"\";\r\n        BooksPool[msg.sender].returnedBooks.push(id);\r\n        emit returnBookSuccess(id, msg.sender);\r\n    }\r\n\r\n    //\r\n    function borrowedBook(uint id) public{\r\n        require(id < books.length);\r\n        Book storage book = books[id];\r\n        require(book.owner != msg.sender && !isBorrowed(id)); // \r\n        book.borrowNums[0] = BorrowNums(tempNum++);\r\n        BooksPool[msg.sender].borrowedBooks.push(id);\r\n        book.status=\"\";\r\n        emit borrowSuccess(id, msg.sender);\r\n\r\n    }\r\n\r\n    //\r\n    function hashCompareInternal(string memory a, string memory b) internal returns (bool) {\r\n        return keccak256(abi.encodePacked(a)) == keccak256(abi.encodePacked(b));\r\n    }\r\n\r\n    function () external {\r\n        revert();\r\n    }\r\n}",
  "sourcePath": "D:/develop/Elibrary/contracts/Book.sol",
  "compiler": {
    "name": "solc",
    "version": "0.5.0+commit.1d4f565a.Emscripten.clang"
  },
  "schemaVersion": "3.0.2",
  "updatedAt": "2019-04-01T12:05:04.789Z",
  "devdoc": {
    "methods": {}
  },
  "userdoc": {
    "methods": {}
  }
}